{
  "_format": "hh-sol-artifact-1",
  "contractName": "FacilityReport",
  "sourceName": "contracts/FacilityReport.sol",
  "abi": [
    {
      "inputs": [],
      "stateMutability": "nonpayable",
      "type": "constructor"
    },
    {
      "anonymous": false,
      "inputs": [
        {
          "indexed": true,
          "internalType": "uint256",
          "name": "id",
          "type": "uint256"
        },
        {
          "indexed": true,
          "internalType": "address",
          "name": "reporter",
          "type": "address"
        },
        {
          "indexed": false,
          "internalType": "string",
          "name": "location",
          "type": "string"
        },
        {
          "indexed": false,
          "internalType": "string",
          "name": "issueType",
          "type": "string"
        }
      ],
      "name": "ReportSubmitted",
      "type": "event"
    },
    {
      "anonymous": false,
      "inputs": [
        {
          "indexed": true,
          "internalType": "uint256",
          "name": "id",
          "type": "uint256"
        },
        {
          "indexed": false,
          "internalType": "enum FacilityReport.Status",
          "name": "newStatus",
          "type": "uint8"
        }
      ],
      "name": "StatusUpdated",
      "type": "event"
    },
    {
      "anonymous": false,
      "inputs": [
        {
          "indexed": true,
          "internalType": "uint256",
          "name": "id",
          "type": "uint256"
        },
        {
          "indexed": false,
          "internalType": "string",
          "name": "technicianName",
          "type": "string"
        }
      ],
      "name": "TechnicianAssigned",
      "type": "event"
    },
    {
      "inputs": [
        {
          "internalType": "uint256",
          "name": "_id",
          "type": "uint256"
        },
        {
          "internalType": "string",
          "name": "_technicianName",
          "type": "string"
        }
      ],
      "name": "assignTechnician",
      "outputs": [],
      "stateMutability": "nonpayable",
      "type": "function"
    },
    {
      "inputs": [],
      "name": "owner",
      "outputs": [
        {
          "internalType": "address",
          "name": "",
          "type": "address"
        }
      ],
      "stateMutability": "view",
      "type": "function"
    },
    {
      "inputs": [],
      "name": "reportCount",
      "outputs": [
        {
          "internalType": "uint256",
          "name": "",
          "type": "uint256"
        }
      ],
      "stateMutability": "view",
      "type": "function"
    },
    {
      "inputs": [
        {
          "internalType": "uint256",
          "name": "",
          "type": "uint256"
        }
      ],
      "name": "reports",
      "outputs": [
        {
          "internalType": "uint256",
          "name": "id",
          "type": "uint256"
        },
        {
          "internalType": "address",
          "name": "reporter",
          "type": "address"
        },
        {
          "internalType": "string",
          "name": "location",
          "type": "string"
        },
        {
          "internalType": "string",
          "name": "issueType",
          "type": "string"
        },
        {
          "internalType": "string",
          "name": "photoURI",
          "type": "string"
        },
        {
          "internalType": "string",
          "name": "technicianName",
          "type": "string"
        },
        {
          "internalType": "enum FacilityReport.Status",
          "name": "status",
          "type": "uint8"
        },
        {
          "internalType": "uint256",
          "name": "timestamp",
          "type": "uint256"
        }
      ],
      "stateMutability": "view",
      "type": "function"
    },
    {
      "inputs": [
        {
          "internalType": "string",
          "name": "_location",
          "type": "string"
        },
        {
          "internalType": "string",
          "name": "_issueType",
          "type": "string"
        },
        {
          "internalType": "string",
          "name": "_photoURI",
          "type": "string"
        }
      ],
      "name": "submitReport",
      "outputs": [],
      "stateMutability": "nonpayable",
      "type": "function"
    },
    {
      "inputs": [
        {
          "internalType": "uint256",
          "name": "_id",
          "type": "uint256"
        },
        {
          "internalType": "enum FacilityReport.Status",
          "name": "_newStatus",
          "type": "uint8"
        }
      ],
      "name": "updateStatus",
      "outputs": [],
      "stateMutability": "nonpayable",
      "type": "function"
    }
  ],
  "bytecode": "0x608060405234801561001057600080fd5b50336000806101000a81548173ffffffffffffffffffffffffffffffffffffffff021916908373ffffffffffffffffffffffffffffffffffffffff16021790555061129c806100606000396000f3fe608060405234801561001057600080fd5b50600436106100625760003560e01c8063185c6f84146100675780633a1b3d31146100855780638da5cb5b146100a1578063c942adf7146100bf578063dd3a50cb146100f6578063fb45a7c214610112575b600080fd5b61006f61012e565b60405161007c919061087d565b60405180910390f35b61009f600480360381019061009a91906108fd565b610134565b005b6100a961028d565b6040516100b6919061097e565b60405180910390f35b6100d960048036038101906100d49190610999565b6102b1565b6040516100ed989796959493929190610acd565b60405180910390f35b610110600480360381019061010b9190610c9c565b610546565b005b61012c60048036038101906101279190610cf8565b610685565b005b60015481565b60008054906101000a900473ffffffffffffffffffffffffffffffffffffffff1673ffffffffffffffffffffffffffffffffffffffff163373ffffffffffffffffffffffffffffffffffffffff16146101c2576040517f08c379a00000000000000000000000000000000000000000000000000000000081526004016101b990610e11565b60405180910390fd5b6000821180156101d457506001548211155b610213576040517f08c379a000000000000000000000000000000000000000000000000000000000815260040161020a90610e7d565b60405180910390fd5b806002600084815260200190815260200160002060060160006101000a81548160ff0219169083600281111561024c5761024b610a56565b5b0217905550817f2da7b23ca63c1eb969eee5fae4acb98186abecf5358b0354a82a5183ebca6b2a826040516102819190610e9d565b60405180910390a25050565b60008054906101000a900473ffffffffffffffffffffffffffffffffffffffff1681565b60026020528060005260406000206000915090508060000154908060010160009054906101000a900473ffffffffffffffffffffffffffffffffffffffff169080600201805461030090610ee7565b80601f016020809104026020016040519081016040528092919081815260200182805461032c90610ee7565b80156103795780601f1061034e57610100808354040283529160200191610379565b820191906000526020600020905b81548152906001019060200180831161035c57829003601f168201915b50505050509080600301805461038e90610ee7565b80601f01602080910402602001604051908101604052809291908181526020018280546103ba90610ee7565b80156104075780601f106103dc57610100808354040283529160200191610407565b820191906000526020600020905b8154815290600101906020018083116103ea57829003601f168201915b50505050509080600401805461041c90610ee7565b80601f016020809104026020016040519081016040528092919081815260200182805461044890610ee7565b80156104955780601f1061046a57610100808354040283529160200191610495565b820191906000526020600020905b81548152906001019060200180831161047857829003601f168201915b5050505050908060050180546104aa90610ee7565b80601f01602080910402602001604051908101604052809291908181526020018280546104d690610ee7565b80156105235780601f106104f857610100808354040283529160200191610523565b820191906000526020600020905b81548152906001019060200180831161050657829003601f168201915b5050505050908060060160009054906101000a900460ff16908060070154905088565b60008054906101000a900473ffffffffffffffffffffffffffffffffffffffff1673ffffffffffffffffffffffffffffffffffffffff163373ffffffffffffffffffffffffffffffffffffffff16146105d4576040517f08c379a00000000000000000000000000000000000000000000000000000000081526004016105cb90610e11565b60405180910390fd5b6000821180156105e657506001548211155b610625576040517f08c379a000000000000000000000000000000000000000000000000000000000815260040161061c90610e7d565b60405180910390fd5b8060026000848152602001908152602001600020600501908161064891906110c4565b50817f43f4445d73221030c10396a736ee3939d135e08d58bf30ce08001d5e4374facc826040516106799190611196565b60405180910390a25050565b60016000815480929190610698906111e7565b919050555060405180610100016040528060015481526020013373ffffffffffffffffffffffffffffffffffffffff1681526020018481526020018381526020018281526020016040518060200160405280600081525081526020016000600281111561070857610707610a56565b5b8152602001428152506002600060015481526020019081526020016000206000820151816000015560208201518160010160006101000a81548173ffffffffffffffffffffffffffffffffffffffff021916908373ffffffffffffffffffffffffffffffffffffffff160217905550604082015181600201908161078c91906110c4565b5060608201518160030190816107a291906110c4565b5060808201518160040190816107b891906110c4565b5060a08201518160050190816107ce91906110c4565b5060c08201518160060160006101000a81548160ff021916908360028111156107fa576107f9610a56565b5b021790555060e082015181600701559050503373ffffffffffffffffffffffffffffffffffffffff166001547f8526a114dd971e972103855de1cea6dd7e7818d619bf53728cec07ac9e784163858560405161085792919061122f565b60405180910390a3505050565b6000819050919050565b61087781610864565b82525050565b6000602082019050610892600083018461086e565b92915050565b6000604051905090565b600080fd5b600080fd5b6108b581610864565b81146108c057600080fd5b50565b6000813590506108d2816108ac565b92915050565b600381106108e557600080fd5b50565b6000813590506108f7816108d8565b92915050565b60008060408385031215610914576109136108a2565b5b6000610922858286016108c3565b9250506020610933858286016108e8565b9150509250929050565b600073ffffffffffffffffffffffffffffffffffffffff82169050919050565b60006109688261093d565b9050919050565b6109788161095d565b82525050565b6000602082019050610993600083018461096f565b92915050565b6000602082840312156109af576109ae6108a2565b5b60006109bd848285016108c3565b91505092915050565b600081519050919050565b600082825260208201905092915050565b60005b83811015610a005780820151818401526020810190506109e5565b60008484015250505050565b6000601f19601f8301169050919050565b6000610a28826109c6565b610a3281856109d1565b9350610a428185602086016109e2565b610a4b81610a0c565b840191505092915050565b7f4e487b7100000000000000000000000000000000000000000000000000000000600052602160045260246000fd5b60038110610a9657610a95610a56565b5b50565b6000819050610aa782610a85565b919050565b6000610ab782610a99565b9050919050565b610ac781610aac565b82525050565b600061010082019050610ae3600083018b61086e565b610af0602083018a61096f565b8181036040830152610b028189610a1d565b90508181036060830152610b168188610a1d565b90508181036080830152610b2a8187610a1d565b905081810360a0830152610b3e8186610a1d565b9050610b4d60c0830185610abe565b610b5a60e083018461086e565b9998505050505050505050565b600080fd5b600080fd5b7f4e487b7100000000000000000000000000000000000000000000000000000000600052604160045260246000fd5b610ba982610a0c565b810181811067ffffffffffffffff82111715610bc857610bc7610b71565b5b80604052505050565b6000610bdb610898565b9050610be78282610ba0565b919050565b600067ffffffffffffffff821115610c0757610c06610b71565b5b610c1082610a0c565b9050602081019050919050565b82818337600083830152505050565b6000610c3f610c3a84610bec565b610bd1565b905082815260208101848484011115610c5b57610c5a610b6c565b5b610c66848285610c1d565b509392505050565b600082601f830112610c8357610c82610b67565b5b8135610c93848260208601610c2c565b91505092915050565b60008060408385031215610cb357610cb26108a2565b5b6000610cc1858286016108c3565b925050602083013567ffffffffffffffff811115610ce257610ce16108a7565b5b610cee85828601610c6e565b9150509250929050565b600080600060608486031215610d1157610d106108a2565b5b600084013567ffffffffffffffff811115610d2f57610d2e6108a7565b5b610d3b86828701610c6e565b935050602084013567ffffffffffffffff811115610d5c57610d5b6108a7565b5b610d6886828701610c6e565b925050604084013567ffffffffffffffff811115610d8957610d886108a7565b5b610d9586828701610c6e565b9150509250925092565b7f4f6e6c79206f776e65722063616e2063616c6c20746869732066756e6374696f60008201527f6e00000000000000000000000000000000000000000000000000000000000000602082015250565b6000610dfb6021836109d1565b9150610e0682610d9f565b604082019050919050565b60006020820190508181036000830152610e2a81610dee565b9050919050565b7f496e76616c6964207265706f7274204944000000000000000000000000000000600082015250565b6000610e676011836109d1565b9150610e7282610e31565b602082019050919050565b60006020820190508181036000830152610e9681610e5a565b9050919050565b6000602082019050610eb26000830184610abe565b92915050565b7f4e487b7100000000000000000000000000000000000000000000000000000000600052602260045260246000fd5b60006002820490506001821680610eff57607f821691505b602082108103610f1257610f11610eb8565b5b50919050565b60008190508160005260206000209050919050565b60006020601f8301049050919050565b600082821b905092915050565b600060088302610f7a7fffffffffffffffffffffffffffffffffffffffffffffffffffffffffffffffff82610f3d565b610f848683610f3d565b95508019841693508086168417925050509392505050565b6000819050919050565b6000610fc1610fbc610fb784610864565b610f9c565b610864565b9050919050565b6000819050919050565b610fdb83610fa6565b610fef610fe782610fc8565b848454610f4a565b825550505050565b600090565b611004610ff7565b61100f818484610fd2565b505050565b5b8181101561103357611028600082610ffc565b600181019050611015565b5050565b601f8211156110785761104981610f18565b61105284610f2d565b81016020851015611061578190505b61107561106d85610f2d565b830182611014565b50505b505050565b600082821c905092915050565b600061109b6000198460080261107d565b1980831691505092915050565b60006110b4838361108a565b9150826002028217905092915050565b6110cd826109c6565b67ffffffffffffffff8111156110e6576110e5610b71565b5b6110f08254610ee7565b6110fb828285611037565b600060209050601f83116001811461112e576000841561111c578287015190505b61112685826110a8565b86555061118e565b601f19841661113c86610f18565b60005b828110156111645784890151825560018201915060208501945060208101905061113f565b86831015611181578489015161117d601f89168261108a565b8355505b6001600288020188555050505b505050505050565b600060208201905081810360008301526111b08184610a1d565b905092915050565b7f4e487b7100000000000000000000000000000000000000000000000000000000600052601160045260246000fd5b60006111f282610864565b91507fffffffffffffffffffffffffffffffffffffffffffffffffffffffffffffffff8203611224576112236111b8565b5b600182019050919050565b600060408201905081810360008301526112498185610a1d565b9050818103602083015261125d8184610a1d565b9050939250505056fea264697066735822122085e644a83a610d0d27f81c577d2eb783b7a221fe7597390dc70e3848f12fcd0464736f6c63430008140033",
  "linkReferences": {},
  "deployedLinkReferences": {}
}